:100000000C94340018950000189500001895000015
:10001000189500001895000018950000189500002C
:10002000189500001895000018950000189500001C
:10003000189500000C946B011895000018950000AD
:1000400018950000189500001895000018950000FC
:1000500018950000189500001895000018950000EC
:1000600018950000189500008FEF8DBFC8EDE0ECEB
:100070004E2E84E08EBFD4E0F4E05F2EA89584B7C6
:10008000082E877F84BF88E1992780936000909332
:100090006000EEEFF3E0A0E0B1E088278D933197A8
:1000A000E9F780E48093C40080E08093C50088E194
:1000B0008093C1006624209A22982398249825983A
:1000C0008FEF87B9289A80E08093800085E0809345
:1000D0008100789470916F00716070936F0084EF6D
:1000E0009BEF909385008093840085E0809381004E
:1000F00081E08093000180E080930101A1E0B1E004
:100100008C9188B9709102017F7770930201709190
:1001100002017F7B70930201709102017F7D7093D9
:10012000020183E080930301709102017F7E70934E
:10013000020189E493EFA4E0B1E08D939C9381E008
:1001400090E0A6E0B1E08D939C931D990C94B100D2
:10015000709102017F7770930201289A83E0809367
:100160000301A3E2B0E00C9104FB81E00EF480E017
:100170008F93A2E0B1E08C9185FB81E00EF480E0EA
:100180009F918923882311F40C94CE00E0E0F0E0E5
:10019000A4E0B1E092E07BE70E94DA021C9B0C94A1
:1001A000D600709102017F7D70930201A3E2B0E05E
:1001B0000C9103FB81E00EF480E08F93A2E0B1E0AC
:1001C0008C9184FB81E00EF480E09F918923882349
:1001D00011F40C940901709102017068709302018E
:1001E00070910201706170930201A4E0B1E00D9181
:1001F0001C910F5F1F4FA4E0B1E00D931C93E4E04E
:10020000F1E0A8EAB4E00E947B020E944D020E9445
:100210005502A3E2B0E00C9102FB81E00EF480E015
:100220008F93A2E0B1E08C9184FB81E00EF480E03A
:100230009F918923882311F40C943C017091020151
:1002400070687093020170910201706170930201F5
:10025000A4E0B1E00D911C9101501040A4E0B1E088
:100260000D931C93E4E0F1E0A8EAB4E00E947B0265
:100270000E944D020E945502A6E0B1E00D911C9132
:100280000F5F1F4FA6E0B1E00D931C93A6E0B1E015
:100290000D911C91003757E1150781E009F080E0CE
:1002A0008F93A2E0B1E08C9187FB81E00EF080E0BB
:1002B0009F918923882311F40C94690180E090E0D8
:1002C000A6E0B1E08D939C93709102017F7E7093C4
:1002D00002010C94A5000F921F922F923F924F9211
:1002E0005F927F92AF92BF920F931F932F933F9392
:1002F0004F935F936F937F938F939F93AF93BF932E
:10030000CF93DF93EF93FF938FB78F93A4E0B1E088
:100310008D919C919093850080938400A2E0B1E040
:100320008C9187FB16F40C949A0180E08093010174
:100330000C94BF0100910001063018F011F00C94EC
:10034000A3010C94A60181E080930001A2E0B1E03A
:100350008C9186FB16F40C94AF010E94DF01A2E0A1
:10036000B1E08C9186FB16F00C94B8010E94160245
:10037000A0E0B1E08C918F5F8C9381E083B9A1E024
:10038000B1E08C9188B98F918FBFFF91EF91DF9190
:10039000CF91BF91AF919F918F917F916F915F911D
:1003A0004F913F912F911F910F91BF90AF907F90F0
:1003B0005F904F903F902F901F900F901895009155
:1003C0000001013011F00C94E80189E180930101F2
:1003D00000910001023011F00C94F10189E2809348
:1003E000010100910001033011F00C94FA0185E243
:1003F0008093010100910001043011F00C9403027C
:1004000086E28093010100910001053011F00C9407
:100410000C0286E18093010100910001063011F089
:100420000C9415028AE18093010108950091000166
:10043000013011F00C941F028AE1809301010091B8
:100440000001023011F00C94280286E18093010132
:1004500000910001033011F00C94310286E2809388
:10046000010100910001043011F00C943A0285E280
:100470008093010100910001053011F00C944302BA
:1004800089E28093010100910001063011F00C9483
:100490004C0289E1809301010895A8EAB4E08D91AE
:1004A000882311F005D0FBCF08958DE001D08AE0BC
:1004B0000090C00005FEFCCF8093C60008953197E0
:1004C000F1F70895689462F80895E89462F8089541
:1004D00001911191219130810895000F111F221F68
:1004E000331F089500951095209530950F5F1F4F8D
:1004F0002F4F3F4F0895019110810FC00E94680255
:100500000EC00E94680210C00191108117FF05C043
:100510003FEF2FEF04C0008111272227332737FF39
:1005200003C0E0DF8DE28D93CF92DF92EF92AA2499
:10053000BB24CC24DD24EE2440E2EAE0FF2755E092
:1005400093E38081890F87FD9F7083FD907F891BD6
:1005500081935A95A9F7C1DFAA1CBB1CCC1CDD1CDA
:10056000EE1C4A9551F7E894EFE0FF2782910CD0FA
:10057000EB30E0F71EF068948A2D0AD088278D931F
:10058000EF90DF90CF900895982F829501D0892F1A
:100590008F70805D26F0803309F4089568948D9300
:1005A0000895F999FECFE1BDF2BD3196089591E02D
:1005B00001C092E07B3751F47FB7F894F2DF8D9160
:1005C00080BDFA9AF99A9A95C9F77FBF772708955F
:00000001FF
