:100000000C94340018950000189500001895000015
:10001000189500001895000018950000189500002C
:10002000189500000C94FF01189500001895000029
:10003000189500000C948D0118950000189500008B
:1000400018950000189500001895000018950000FC
:1000500018950000189500001895000018950000EC
:1000600018950000189500008FEF8DBFC8EDE0ECEB
:100070004E2E84E08EBFD4E0F4E05F2EA89584B7C6
:10008000082E877F84BF88E1992780936000909332
:100090006000EEEFF3E0A0E0B1E088278D933197A8
:1000A000E9F76624209A22982398249825988FEFC0
:1000B00087B9289A80E08093800085E08093810052
:1000C000789470916F00716070936F0084EF9BEF74
:1000D000909385008093840085E080938100539AFB
:1000E00082E08093B10081E28093B00074E6709367
:1000F000B4007091700071607093700081E0809323
:1001000000018FEF80930101A1E0B1E08C9188B9EB
:10011000709102017F7770930201709102017F7BE1
:1001200070930201709102017F7D7093020183E060
:1001300080930301709102017F7E7093020189E434
:1001400093EFA4E0B1E08D939C9381E090E0A6E072
:10015000B1E08D939C931D990C94B70070910201AE
:100160007F7770930201289A81E080930301A3E2D4
:10017000B0E00C9104FB81E00EF480E08F93A2E0EC
:10018000B1E08C9185FB81E00EF480E09F918923A2
:10019000882311F40C94DE00709102017062709358
:1001A0000201A2E0B1E08C9186FB882780F980955E
:1001B00080FBA2E0B1E08C9186F98C931C9B0C949F
:1001C000E600709102017F7D70930201A3E2B0E02E
:1001D0000C9103FB81E00EF480E08F93A2E0B1E08C
:1001E0008C9184FB81E00EF480E09F918923882329
:1001F00011F40C941801709102017068709302015F
:1002000070910201706170930201A3E0B1E08C91E2
:100210008F5F8C93009103010D3018F011F00C9456
:1002200013010C9416018DE0809303010E94A70234
:10023000A3E2B0E00C9102FB81E00EF480E08F932A
:10024000A2E0B1E08C9184FB81E00EF480E09F910C
:100250008923882311F40C9447017091020170687E
:100260007093020170910201706170930201A3E02A
:10027000B1E08C9181508C9300910301013010F01A
:100280000C94450181E0809303010E94A702A3E240
:10029000B0E00C9102FB81E00EF080E08F93A3E2CE
:1002A000B0E00C9103FB81E00EF080E09F91892388
:1002B000882311F40C946101709102017F7E709388
:1002C0000201A6E0B1E00D911C910F5F1F4FA6E067
:1002D000B1E00D931C93A6E0B1E00D911C910037A5
:1002E00057E1150781E009F080E08F93A2E0B1E0CB
:1002F0008C9187FB81E00EF080E09F918923882319
:1003000011F40C948B0180E090E0A6E0B1E08D93B5
:100310009C9381E083B90C94AB000F921F922F92B3
:100320003F924F925F927F92AF92BF920F931F9333
:100330002F933F934F935F936F937F938F939F93ED
:10034000AF93BF93CF93DF93EF93FF938FB78F93C9
:10035000A4E0B1E08D919C919093850080938400FE
:10036000A2E0B1E08C9187FB16F40C94BC018FEFF6
:10037000809301010C94DF0100910001063018F018
:1003800011F00C94C5010C94C80181E08093000128
:10039000A2E0B1E08C9186FB16F40C94D1010E948E
:1003A0003902A2E0B1E08C9186FB16F00C94DA01E0
:1003B0000E947002A0E0B1E08C918F5F8C93A1E06D
:1003C000B1E08C9188B98F918FBFFF91EF91DF9150
:1003D000CF91BF91AF919F918F917F916F915F91DD
:1003E0004F913F912F911F910F91BF90AF907F90B0
:1003F0005F904F903F902F901F900F9018950F9205
:100400001F922F923F924F925F927F92AF92BF9234
:100410000F931F932F933F934F935F936F937F930C
:100420008F939F93AF93BF93CF93DF93EF93FF93FC
:100430008FB78F937EEC7093B2008F918FBFFF9137
:10044000EF91DF91CF91BF91AF919F918F917F916C
:100450006F915F914F913F912F911F910F91BF909D
:10046000AF907F905F904F903F902F901F900F9094
:10047000189500910001013011F00C94420286EEB3
:100480008093010100910001023011F00C944B02A5
:1004900086ED8093010100910001033011F00C946E
:1004A00054028AED8093010100910001043011F0A3
:1004B0000C945D0289ED80930101009100010530EB
:1004C00011F00C94660289EE809301010091000105
:1004D000063011F00C946F0285EE809301010895AF
:1004E00000910001013011F00C94790285EE8093A7
:1004F000010100910001023011F00C94820289EE9A
:100500008093010100910001033011F00C948B02E3
:1005100089ED8093010100910001043011F00C94E9
:1005200094028AED8093010100910001053011F0E1
:100530000C949D0286ED809301010091000106302C
:1005400011F00C94A60286EE8093010108950091AB
:100550000301013011F00C94B60289E493EFA4E09A
:10056000B1E08D939C9370E77093B4000091030108
:10057000023011F00C94C50283EA99EFA4E0B1E0D7
:100580008D939C937CE77093B4000091030103303A
:1005900011F00C94D40282EC9BEFA4E0B1E08D93B7
:1005A0009C9372E87093B40000910301043011F041
:1005B0000C94E30285ED9CEFA4E0B1E08D939C9355
:1005C00077E87093B40000910301053011F00C94AA
:1005D000F20287E79DEFA4E0B1E08D939C937CE865
:1005E0007093B40000910301063011F00C940103E4
:1005F00087EE9DEFA4E0B1E08D939C9371E9709339
:10060000B40000910301073011F00C94100381E352
:100610009EEFA4E0B1E08D939C9376E97093B400D3
:1006200000910301083011F00C941F038DE69EEF3A
:10063000A4E0B1E08D939C937BE97093B4000091AA
:100640000301093011F00C942E0389E99EEFA4E018
:10065000B1E08D939C9374EB7093B400009103010F
:100660000A3011F00C943D038CEB9EEFA4E0B1E056
:100670008D939C9378EC7093B400009103010B3040
:1006800011F00C944C038CED9EEFA4E0B1E08D933F
:100690009C9370EF7093B400009103010C3011F043
:1006A0000C945B0383EF9EEFA4E0B1E08D939C93E9
:1006B00075EF7093B400009103010D3011F00C94AC
:1006C0006A0388E09FEFA4E0B1E08D939C937CEFF8
:1006D0007093B40008953197F1F70895689462F823
:0806E0000895E89462F8089502
:00000001FF
