:100000000C94340018950000189500001895000015
:10001000189500001895000018950000189500002C
:10002000189500001895000018950000189500001C
:10003000189500000C947E0118950000189500009A
:1000400018950000189500001895000018950000FC
:1000500018950000189500001895000018950000EC
:1000600018950000189500008FEF8DBFC8EDE0ECEB
:100070004E2E84E08EBFD4E0F4E05F2EA89584B7C6
:10008000082E877F84BF88E1992780936000909332
:100090006000EEEFF3E0A0E0B1E088278D933197A8
:1000A000E9F76624209A22982398249825988FEFC0
:1000B00087B9289A80E08093800085E08093810052
:1000C000789470916F00716070936F0084EF9BEF74
:1000D000909385008093840085E08093810081E087
:1000E0008093000180E080930101A1E0B1E08C9158
:1000F00088B9709102017F777093020170910201BB
:100100007F7B70930201709102017F7D70930201E9
:1001100083E080930301709102017F7E709302015E
:1001200082EC9BEFA4E0B1E08D939C9381E090E0A2
:10013000A6E0B1E08D939C931D990C94A80070915A
:1001400002017F7770930201289A83E08093030174
:10015000A3E2B0E00C9104FB81E00EF480E08F9309
:10016000A2E0B1E08C9185FB81E00EF480E09F91EC
:100170008923882311F40C94CF00709102017062DE
:1001800070930201A2E0B1E08C9186FB882780F990
:10019000809580FBA2E0B1E08C9186F98C931C9B4A
:1001A0000C94D700709102017F7D70930201A3E24D
:1001B000B0E00C9103FB81E00EF480E08F93A2E0AD
:1001C000B1E08C9184FB81E00EF480E09F91892363
:1001D000882311F40C9409017091020170687093E6
:1001E000020170910201706170930201A3E0B1E01D
:1001F0008C918F5F8C93009103010C3318F011F0F8
:100200000C9404010C9407018CE3809303010E9479
:100210005E02A3E2B0E00C9102FB81E00EF480E00C
:100220008F93A2E0B1E08C9184FB81E00EF480E03A
:100230009F918923882311F40C9438017091020155
:1002400070687093020170910201706170930201F5
:10025000A3E0B1E08C9181508C93009103010330B5
:1002600010F00C94360183E0809303010E945E023B
:10027000A3E2B0E00C9102FB81E00EF080E08F93EE
:10028000A3E2B0E00C9103FB81E00EF080E09F91CF
:100290008923882311F40C945201709102017F7E0E
:1002A00070930201A6E0B1E00D911C910F5F1F4F0A
:1002B000A6E0B1E00D931C93A6E0B1E00D911C9176
:1002C000003757E1150781E009F080E08F93A2E045
:1002D000B1E08C9187FB81E00EF080E09F91892353
:1002E000882311F40C947C0180E090E0A6E0B1E05A
:1002F0008D939C9381E083B90C949C000F921F9284
:100300002F923F924F925F927F92AF92BF920F9344
:100310001F932F933F934F935F936F937F938F938D
:100320009F93AF93BF93CF93DF93EF93FF938FB7D9
:100330008F93A4E0B1E08D919C9190938500809380
:100340008400A2E0B1E08C9187FB16F40C94AD011F
:1003500080E0809301010C94D001009100010630EF
:1003600018F011F00C94B6010C94B90181E080935F
:100370000001A2E0B1E08C9186FB16F40C94C2015E
:100380000E94F001A2E0B1E08C9186FB16F00C9483
:10039000CB010E942702A0E0B1E08C918F5F8C938B
:1003A000A1E0B1E08C9188B98F918FBFFF91EF915F
:1003B000DF91CF91BF91AF919F918F917F916F917D
:1003C0005F914F913F912F911F910F91BF90AF90EF
:1003D0007F905F904F903F902F901F900F901895B7
:1003E00000910001013011F00C94F90189E1809332
:1003F000010100910001023011F00C94020289E227
:100400008093010100910001033011F00C940B0264
:1004100085E28093010100910001043011F00C94F9
:10042000140286E28093010100910001053011F071
:100430000C941D0286E180930101009100010630B9
:1004400011F00C9426028AE1809301010895009135
:100450000001013011F00C9430028AE18093010117
:1004600000910001023011F00C94390286E1809372
:10047000010100910001033011F00C94420286E268
:100480008093010100910001043011F00C944B02A3
:1004900085E28093010100910001053011F00C9478
:1004A000540289E28093010100910001063011F0AD
:1004B0000C945D0289E1809301010895009103018C
:1004C000033011F00C946A0282EC9BEFA4E0B1E0DF
:1004D0008D939C9300910301043011F00C947602EB
:1004E00085ED9CEFA4E0B1E08D939C930091030116
:1004F000053011F00C94820287E79DEFA4E0B1E093
:100500008D939C9300910301063011F00C948E02A0
:1005100087EE9DEFA4E0B1E08D939C9300910301E1
:10052000073011F00C949A0281E39EEFA4E0B1E051
:100530008D939C9300910301083011F00C94A60256
:100540008DE69EEFA4E0B1E08D939C9300910301B2
:10055000093011F00C94B20289E99EEFA4E0B1E0F9
:100560008D939C93009103010A3011F00C94BE020C
:100570008CEB9EEFA4E0B1E08D939C93009103017E
:100580000B3011F00C94CA028CED9EEFA4E0B1E0A8
:100590008D939C93009103010C3011F00C94D602C2
:1005A00083EF9EEFA4E0B1E08D939C930091030153
:1005B0000D3011F00C94E20288E09FEFA4E0B1E06E
:1005C0008D939C93009103010E3011F00C94EE0278
:1005D00088E19FEFA4E0B1E08D939C93009103012B
:1005E0000F3011F00C94FA0289E29FEFA4E0B1E021
:1005F0008D939C9300910301003111F00C9406033C
:1006000085E39FEFA4E0B1E08D939C9300910301FB
:10061000013111F00C94120381E49FEFA4E0B1E0EA
:100620008D939C9300910301023111F00C941E03F1
:100630008CE49FEFA4E0B1E08D939C9300910301C3
:10064000033111F00C942A0385E59FEFA4E0B1E09B
:100650008D939C9300910301043111F00C943603A7
:100660008EE59FEFA4E0B1E08D939C930091030190
:10067000053111F00C94420386E69FEFA4E0B1E04F
:100680008D939C9300910301063111F00C944E035D
:100690008DE69FEFA4E0B1E08D939C930091030160
:1006A000073111F00C945A0384E79FEFA4E0B1E006
:1006B0008D939C9300910301083111F00C94660313
:1006C00089E79FEFA4E0B1E08D939C930091030133
:1006D000093111F00C9472038EE79FEFA4E0B1E0B2
:1006E0008D939C93009103010A3111F00C947E03C9
:1006F00083E89FEFA4E0B1E08D939C930091030108
:100700000B3111F00C948A0388E89FEFA4E0B1E06C
:100710008D939C93009103010C3111F00C9496037E
:100720008CE89FEFA4E0B1E08D939C9300910301CE
:100730000D3111F00C94A20380E99FEFA4E0B1E029
:100740008D939C93009103010E3111F00C94AE0334
:1007500084E99FEFA4E0B1E08D939C9300910301A5
:100760000F3111F00C94BA0388E99FEFA4E0B1E0D7
:100770008D939C9300910301003211F00C94C603F9
:100780008BE99FEFA4E0B1E08D939C93009103016E
:10079000013211F00C94D2038EE99FEFA4E0B1E096
:1007A0008D939C9300910301023211F00C94DE03AF
:1007B00081EA9FEFA4E0B1E08D939C930091030147
:1007C000033211F00C94EA0384EA9FEFA4E0B1E055
:1007D0008D939C9300910301043211F00C94F60365
:1007E00086EA9FEFA4E0B1E08D939C930091030112
:1007F000053211F00C94020488EA9FEFA4E0B1E006
:100800008D939C9300910301063211F00C940E0419
:100810008BEA9FEFA4E0B1E08D939C9300910301DC
:10082000073211F00C941A048DEA9FEFA4E0B1E0B6
:100830008D939C9300910301083211F00C942604CF
:100840008FEA9FEFA4E0B1E08D939C9300910301A8
:10085000093211F00C94320481EB9FEFA4E0B1E077
:100860008D939C93009103010A3211F00C943E0485
:1008700083EB9FEFA4E0B1E08D939C930091030183
:100880000B3211F00C944A0485EB9FEFA4E0B1E029
:100890008D939C93009103010C3211F00C9456043B
:1008A00087EB9FEFA4E0B1E08D939C93009103014F
:1008B0000D3211F00C94620488EB9FEFA4E0B1E0DC
:1008C0008D939C93009103010E3211F00C946E04F1
:1008D0008AEB9FEFA4E0B1E08D939C93009103011C
:1008E0000F3211F00C947A048BEB9FEFA4E0B1E08F
:1008F0008D939C9300910301003311F00C948604B6
:100900008DEB9FEFA4E0B1E08D939C9300910301E8
:10091000013311F00C9492048EEB9FEFA4E0B1E050
:100920008D939C9300910301023311F00C949E046B
:100930008FEB9FEFA4E0B1E08D939C9300910301B6
:10094000033311F00C94AA0481EC9FEFA4E0B1E012
:100950008D939C9300910301043311F00C94B60421
:1009600082EC9FEFA4E0B1E08D939C930091030192
:10097000053311F00C94C20483EC9FEFA4E0B1E0C6
:100980008D939C9300910301063311F00C94CE04D7
:1009900084EC9FEFA4E0B1E08D939C930091030160
:1009A000073311F00C94DA0485EC9FEFA4E0B1E07A
:1009B0008D939C9300910301083311F00C94E6048D
:1009C00086EC9FEFA4E0B1E08D939C93009103012E
:1009D000093311F00C94F20487EC9FEFA4E0B1E02E
:1009E0008D939C93009103010A3311F00C94FE0443
:1009F00088EC9FEFA4E0B1E08D939C9300910301FC
:100A00000B3311F00C940A0589EC9FEFA4E0B1E0E0
:100A10008D939C93009103010C3311F00C941605F7
:100A20008AEC9FEFA4E0B1E08D939C9308953197F9
:100A3000F1F70895689462F80895E89462F80895CB
:00000001FF
