:100000000C94340018950000189500001895000015
:10001000189500001895000018950000189500002C
:10002000189500001895000018950000189500001C
:10003000189500001895000018950000189500000C
:1000400018950000189500001895000018950000FC
:1000500018950000189500001895000018950000EC
:1000600018950000189500008FEF8DBFC8EDE0ECEB
:100070004E2E84E08EBFD4E0F4E05F2EA89584B7C6
:10008000082E877F84BF88E1992780936000909332
:100090006000EEEFF3E0A0E0B1E088278D933197A8
:1000A000E9F76624209A22982398249825988FEFC0
:1000B00087B9289A1A990C945F000C9476001B99C2
:1000C0000C9464000C9476001C990C9469000C94B8
:1000D00076001D990C946E000C94760081E083B933
:1000E00082E390E00E9485000C945A0082E390E045
:1000F0000E9485000C9476003197F1F7089568947A
:1001000062F80895E89462F80895EF93FF93EE275C
:10011000E82BE92B31F0E8E8F3E13197F1F70197AB
:08012000D1F7FF91EF91089562
:00000001FF
